{
  "_format": "hh-sol-artifact-1",
  "contractName": "Charity",
  "sourceName": "src/contracts/Charity.sol",
  "abi": [
    {
      "inputs": [],
      "stateMutability": "nonpayable",
      "type": "constructor"
    },
    {
      "anonymous": false,
      "inputs": [
        {
          "indexed": false,
          "internalType": "uint256",
          "name": "id",
          "type": "uint256"
        },
        {
          "indexed": false,
          "internalType": "string",
          "name": "actionType",
          "type": "string"
        },
        {
          "indexed": true,
          "internalType": "address",
          "name": "executor",
          "type": "address"
        },
        {
          "indexed": false,
          "internalType": "uint256",
          "name": "timestamp",
          "type": "uint256"
        }
      ],
      "name": "Action",
      "type": "event"
    },
    {
      "inputs": [],
      "name": "balance",
      "outputs": [
        {
          "internalType": "uint256",
          "name": "",
          "type": "uint256"
        }
      ],
      "stateMutability": "view",
      "type": "function"
    },
    {
      "inputs": [],
      "name": "campaignCount",
      "outputs": [
        {
          "internalType": "uint256",
          "name": "",
          "type": "uint256"
        }
      ],
      "stateMutability": "view",
      "type": "function"
    },
    {
      "inputs": [
        {
          "internalType": "uint256",
          "name": "",
          "type": "uint256"
        }
      ],
      "name": "campaignExists",
      "outputs": [
        {
          "internalType": "bool",
          "name": "",
          "type": "bool"
        }
      ],
      "stateMutability": "view",
      "type": "function"
    },
    {
      "inputs": [
        {
          "internalType": "string",
          "name": "title",
          "type": "string"
        },
        {
          "internalType": "string",
          "name": "description",
          "type": "string"
        },
        {
          "internalType": "string",
          "name": "imageURL",
          "type": "string"
        },
        {
          "internalType": "uint256",
          "name": "cost",
          "type": "uint256"
        },
        {
          "internalType": "uint256",
          "name": "deadline",
          "type": "uint256"
        }
      ],
      "name": "createCampaign",
      "outputs": [
        {
          "internalType": "bool",
          "name": "",
          "type": "bool"
        }
      ],
      "stateMutability": "nonpayable",
      "type": "function"
    },
    {
      "inputs": [
        {
          "internalType": "uint256",
          "name": "id",
          "type": "uint256"
        }
      ],
      "name": "deleteCampaign",
      "outputs": [
        {
          "internalType": "bool",
          "name": "",
          "type": "bool"
        }
      ],
      "stateMutability": "nonpayable",
      "type": "function"
    },
    {
      "inputs": [
        {
          "internalType": "uint256",
          "name": "id",
          "type": "uint256"
        }
      ],
      "name": "donateToCampaign",
      "outputs": [
        {
          "internalType": "bool",
          "name": "",
          "type": "bool"
        }
      ],
      "stateMutability": "payable",
      "type": "function"
    },
    {
      "inputs": [
        {
          "internalType": "uint256",
          "name": "id",
          "type": "uint256"
        }
      ],
      "name": "getCampaign",
      "outputs": [
        {
          "components": [
            {
              "internalType": "uint256",
              "name": "id",
              "type": "uint256"
            },
            {
              "internalType": "address",
              "name": "owner",
              "type": "address"
            },
            {
              "internalType": "string",
              "name": "title",
              "type": "string"
            },
            {
              "internalType": "string",
              "name": "description",
              "type": "string"
            },
            {
              "internalType": "string",
              "name": "imageURL",
              "type": "string"
            },
            {
              "internalType": "uint256",
              "name": "cost",
              "type": "uint256"
            },
            {
              "internalType": "uint256",
              "name": "raised",
              "type": "uint256"
            },
            {
              "internalType": "uint256",
              "name": "deadline",
              "type": "uint256"
            },
            {
              "internalType": "uint256",
              "name": "donors",
              "type": "uint256"
            },
            {
              "internalType": "uint256",
              "name": "timestamp",
              "type": "uint256"
            },
            {
              "internalType": "enum Charity.statusEnum",
              "name": "status",
              "type": "uint8"
            }
          ],
          "internalType": "struct Charity.campaignStruct",
          "name": "",
          "type": "tuple"
        }
      ],
      "stateMutability": "view",
      "type": "function"
    },
    {
      "inputs": [],
      "name": "getCampaigns",
      "outputs": [
        {
          "components": [
            {
              "internalType": "uint256",
              "name": "id",
              "type": "uint256"
            },
            {
              "internalType": "address",
              "name": "owner",
              "type": "address"
            },
            {
              "internalType": "string",
              "name": "title",
              "type": "string"
            },
            {
              "internalType": "string",
              "name": "description",
              "type": "string"
            },
            {
              "internalType": "string",
              "name": "imageURL",
              "type": "string"
            },
            {
              "internalType": "uint256",
              "name": "cost",
              "type": "uint256"
            },
            {
              "internalType": "uint256",
              "name": "raised",
              "type": "uint256"
            },
            {
              "internalType": "uint256",
              "name": "deadline",
              "type": "uint256"
            },
            {
              "internalType": "uint256",
              "name": "donors",
              "type": "uint256"
            },
            {
              "internalType": "uint256",
              "name": "timestamp",
              "type": "uint256"
            },
            {
              "internalType": "enum Charity.statusEnum",
              "name": "status",
              "type": "uint8"
            }
          ],
          "internalType": "struct Charity.campaignStruct[]",
          "name": "",
          "type": "tuple[]"
        }
      ],
      "stateMutability": "view",
      "type": "function"
    },
    {
      "inputs": [
        {
          "internalType": "uint256",
          "name": "id",
          "type": "uint256"
        }
      ],
      "name": "getDonors",
      "outputs": [
        {
          "components": [
            {
              "internalType": "address",
              "name": "owner",
              "type": "address"
            },
            {
              "internalType": "uint256",
              "name": "donationAmount",
              "type": "uint256"
            },
            {
              "internalType": "uint256",
              "name": "timestamp",
              "type": "uint256"
            },
            {
              "internalType": "bool",
              "name": "refunded",
              "type": "bool"
            }
          ],
          "internalType": "struct Charity.donorStruct[]",
          "name": "",
          "type": "tuple[]"
        }
      ],
      "stateMutability": "view",
      "type": "function"
    },
    {
      "inputs": [],
      "name": "owner",
      "outputs": [
        {
          "internalType": "address",
          "name": "",
          "type": "address"
        }
      ],
      "stateMutability": "view",
      "type": "function"
    },
    {
      "inputs": [
        {
          "internalType": "uint256",
          "name": "id",
          "type": "uint256"
        }
      ],
      "name": "payoutToCampaign",
      "outputs": [
        {
          "internalType": "bool",
          "name": "",
          "type": "bool"
        }
      ],
      "stateMutability": "nonpayable",
      "type": "function"
    },
    {
      "inputs": [],
      "name": "stats",
      "outputs": [
        {
          "internalType": "uint256",
          "name": "totalCampaigns",
          "type": "uint256"
        },
        {
          "internalType": "uint256",
          "name": "totalDonors",
          "type": "uint256"
        },
        {
          "internalType": "uint256",
          "name": "totalDonations",
          "type": "uint256"
        }
      ],
      "stateMutability": "view",
      "type": "function"
    },
    {
      "inputs": [
        {
          "internalType": "uint256",
          "name": "id",
          "type": "uint256"
        },
        {
          "internalType": "string",
          "name": "title",
          "type": "string"
        },
        {
          "internalType": "string",
          "name": "description",
          "type": "string"
        },
        {
          "internalType": "string",
          "name": "imageURL",
          "type": "string"
        },
        {
          "internalType": "uint256",
          "name": "deadline",
          "type": "uint256"
        }
      ],
      "name": "updateCampaign",
      "outputs": [
        {
          "internalType": "bool",
          "name": "",
          "type": "bool"
        }
      ],
      "stateMutability": "nonpayable",
      "type": "function"
    }
  ],
  "bytecode": "0x608060405234801561001057600080fd5b50600080546001600160a01b03191633179055612063806100326000396000f3fe6080604052600436106100c25760003560e01c80637274e30d1161007f578063980f2e6611610059578063980f2e6614610235578063a6b0363314610255578063b69ef8a814610277578063d80528ae1461028d57600080fd5b80637274e30d146101b957806375970193146101dd5780638da5cb5b146101fd57600080fd5b80631815bbbf146100c757806329516511146100fc5780633b594a68146101295780633dfbfca91461015957806342a4fda8146101795780635598f8cc1461018c575b600080fd5b3480156100d357600080fd5b506100e76100e2366004611b37565b6102c7565b60405190151581526020015b60405180910390f35b34801561010857600080fd5b5061011c610117366004611b37565b6103f2565b6040516100f39190611b50565b34801561013557600080fd5b506100e7610144366004611b37565b60096020526000908152604090205460ff1681565b34801561016557600080fd5b506100e7610174366004611c62565b610494565b6100e7610187366004611b37565b610744565b34801561019857600080fd5b506101ac6101a7366004611b37565b610b6f565b6040516100f39190611e46565b3480156101c557600080fd5b506101cf60015481565b6040519081526020016100f3565b3480156101e957600080fd5b506100e76101f8366004611b37565b610e50565b34801561020957600080fd5b5060005461021d906001600160a01b031681565b6040516001600160a01b0390911681526020016100f3565b34801561024157600080fd5b506100e7610250366004611e60565b611027565b34801561026157600080fd5b5061026a611484565b6040516100f39190611efa565b34801561028357600080fd5b506101cf60025481565b34801561029957600080fd5b506003546004546005546102ac92919083565b604080519384526020840192909252908201526060016100f3565b60006001600683815481106102de576102de611f5c565b60009182526020909120600a600b90920201015460ff16600481111561030657610306611d49565b146103585760405162461bcd60e51b815260206004820152601860248201527f43616d706169676e206973206e6f7420415050524f564544000000000000000060448201526064015b60405180910390fd5b6006828154811061036b5761036b611f5c565b60009182526020909120600b90910201600101546001600160a01b031633148061039f57506000546001600160a01b031633145b6103e15760405162461bcd60e51b8152602060048201526013602482015272556e617574686f72697a656420656e7469747960681b604482015260640161034f565b6103ea8261171f565b506001919050565b606060086000838152602001908152602001600020805480602002602001604051908101604052809291908181526020016000905b82821015610489576000848152602090819020604080516080810182526004860290920180546001600160a01b03168352600180820154848601526002820154928401929092526003015460ff16151560608301529083529092019101610427565b505050509050919050565b6000600686815481106104a9576104a9611f5c565b60009182526020909120600b90910201600101546001600160a01b0316331461051e5760405162461bcd60e51b815260206004820152602160248201527f596f752063616e2065646974206f6e6c7920796f75722043616d706169676e736044820152602160f81b606482015260840161034f565b60008551116105675760405162461bcd60e51b81526020600482015260156024820152745469746c652063616e6e6f7420626520656d70747960581b604482015260640161034f565b60008451116105b85760405162461bcd60e51b815260206004820152601b60248201527f4465736372697074696f6e2063616e6e6f7420626520656d7074790000000000604482015260640161034f565b60008351116106015760405162461bcd60e51b8152602060048201526015602482015274496d6167652063616e6e6f7420626520656d70747960581b604482015260640161034f565b846006878154811061061557610615611f5c565b90600052602060002090600b02016002019080519060200190610639929190611a2b565b50836006878154811061064e5761064e611f5c565b90600052602060002090600b02016003019080519060200190610672929190611a2b565b50826006878154811061068757610687611f5c565b90600052602060002090600b020160040190805190602001906106ab929190611a2b565b5081600687815481106106c0576106c0611f5c565b90600052602060002090600b020160070181905550336001600160a01b031660008051602061200e83398151915287426040516107309291909182526060602083018190526011908301527043414d504149474e20555044415445442160781b6080830152604082015260a00190565b60405180910390a250600195945050505050565b60008181526009602052604081205460ff166107a25760405162461bcd60e51b815260206004820152601760248201527f43616d706169676e20646f6573206e6f74206578697374000000000000000000604482015260640161034f565b6000600683815481106107b7576107b7611f5c565b60009182526020909120600a600b90920201015460ff1660048111156107df576107df611d49565b1461083d5760405162461bcd60e51b815260206004820152602860248201527f43616d706169676e206973206e6f206c6f6e676572204f70656e20666f7220646044820152676f6e6174696f6e7360c01b606482015260840161034f565b6000341161088d5760405162461bcd60e51b815260206004820152601e60248201527f446f6e6174696f6e20616d6f756e742063616e6e6f74206265207a65726f0000604482015260640161034f565b6001600360010160008282546108a39190611f88565b9091555050600580543491906000906108bd908490611f88565b9250508190555034600683815481106108d8576108d8611f5c565b90600052602060002090600b020160060160008282546108f89190611f88565b9250508190555060016006838154811061091457610914611f5c565b90600052602060002090600b020160080160008282546109349190611f88565b9091555050600082815260086020908152604080832081516080808201845233808352348387019081524284870181815260608087018b8152885460018082018b55998d529b8b902097516004909c0290970180546001600160a01b0319166001600160a01b03909c169b909b178b559251968a01969096559451600289015592516003909701805460ff191697151597909717909655835188815294850182905260139185019190915272111bdb985d1a5bdb8814dd58d8d95cdcd99d5b606a1b908401529082015260008051602061200e8339815191529060a00160405180910390a260068281548110610a2c57610a2c611f5c565b90600052602060002090600b02016005015460068381548110610a5157610a51611f5c565b90600052602060002090600b02016006015410610af457600160068381548110610a7d57610a7d611f5c565b60009182526020909120600a600b9092020101805460ff19166001836004811115610aaa57610aaa611d49565b021790555060068281548110610ac257610ac2611f5c565b90600052602060002090600b02016006015460026000828254610ae59190611f88565b90915550610af490508261171f565b60068281548110610b0757610b07611f5c565b90600052602060002090600b02016007015442106103ea57600260068381548110610b3457610b34611f5c565b60009182526020909120600a600b9092020101805460ff19166001836004811115610b6157610b61611d49565b02179055506103ea82611858565b610b77611aaf565b60008281526009602052604090205460ff16610bca5760405162461bcd60e51b815260206004820152601260248201527110d85b5c185a59db881b9bdd08199bdd5b9960721b604482015260640161034f565b60068281548110610bdd57610bdd611f5c565b90600052602060002090600b020160405180610160016040529081600082015481526020016001820160009054906101000a90046001600160a01b03166001600160a01b03166001600160a01b03168152602001600282018054610c4090611fa0565b80601f0160208091040260200160405190810160405280929190818152602001828054610c6c90611fa0565b8015610cb95780601f10610c8e57610100808354040283529160200191610cb9565b820191906000526020600020905b815481529060010190602001808311610c9c57829003601f168201915b50505050508152602001600382018054610cd290611fa0565b80601f0160208091040260200160405190810160405280929190818152602001828054610cfe90611fa0565b8015610d4b5780601f10610d2057610100808354040283529160200191610d4b565b820191906000526020600020905b815481529060010190602001808311610d2e57829003601f168201915b50505050508152602001600482018054610d6490611fa0565b80601f0160208091040260200160405190810160405280929190818152602001828054610d9090611fa0565b8015610ddd5780601f10610db257610100808354040283529160200191610ddd565b820191906000526020600020905b815481529060010190602001808311610dc057829003601f168201915b505050918352505060058201546020820152600682015460408201526007820154606082015260088201546080820152600982015460a0820152600a82015460c09091019060ff166004811115610e3657610e36611d49565b6004811115610e4757610e47611d49565b90525092915050565b60008060068381548110610e6657610e66611f5c565b60009182526020909120600a600b90920201015460ff166004811115610e8e57610e8e611d49565b14610eec5760405162461bcd60e51b815260206004820152602860248201527f50726f6a656374206973206e6f206c6f6e676572206f70656e20746f2062652060448201526764656c657465642160c01b606482015260840161034f565b336001600160a01b031660068381548110610f0957610f09611f5c565b600091825260209091206001600b9092020101546001600160a01b031614610f7e5760405162461bcd60e51b815260206004820152602260248201527f596f752063616e2064656c657465206f6e6c7920796f75722043616d706169676044820152616e7360f01b606482015260840161034f565b600360068381548110610f9357610f93611f5c565b60009182526020909120600a600b9092020101805460ff19166001836004811115610fc057610fc0611d49565b0217905550610fce82611858565b604080518381526060602082018190526010908201526f10d05354105251d3881111531155115160821b608082015242818301529051339160008051602061200e833981519152919081900360a00190a2506001919050565b6000808651116110715760405162461bcd60e51b81526020600482015260156024820152745469746c652063616e6e6f7420626520656d70747960581b604482015260640161034f565b60008551116110c25760405162461bcd60e51b815260206004820152601b60248201527f4465736372697074696f6e2063616e6e6f7420626520656d7074790000000000604482015260640161034f565b600084511161110b5760405162461bcd60e51b8152602060048201526015602482015274496d6167652063616e6e6f7420626520656d70747960581b604482015260640161034f565b600083116111515760405162461bcd60e51b8152602060048201526013602482015272436f73742063616e6e6f74206265207a65726f60681b604482015260640161034f565b611159611aaf565b600180548252336020808401918252604084018a8152606085018a90526080850189905260a0850188905260e085018790524261012086015260068054948501815560005284517ff652222313e28459528d920b65115c16c04f3efc82aaedc97be59f3f377c0d3f600b90950294850190815592517ff652222313e28459528d920b65115c16c04f3efc82aaedc97be59f3f377c0d40850180546001600160a01b0319166001600160a01b039092169190911790555180518594611243937ff652222313e28459528d920b65115c16c04f3efc82aaedc97be59f3f377c0d41909101920190611a2b565b506060820151805161125f916003840191602090910190611a2b565b506080820151805161127b916004840191602090910190611a2b565b5060a0820151600582015560c0820151600682015560e0820151600782015561010082015160088201556101208201516009820155610140820151600a8201805460ff191660018360048111156112d4576112d4611d49565b021790555050600180546000908152600960209081526040808320805460ff1916851790553383526007825280832080548086018255908452928290208651600b909402019283558582015193830180546001600160a01b0319166001600160a01b0390951694909417909355918401518051859450919261135e92600285019290910190611a2b565b506060820151805161137a916003840191602090910190611a2b565b5060808201518051611396916004840191602090910190611a2b565b5060a0820151600582015560c0820151600682015560e0820151600782015561010082015160088201556101208201516009820155610140820151600a8201805460ff191660018360048111156113ef576113ef611d49565b0217905550505060016003600001600082825461140c9190611f88565b909155505060018054339160008051602061200e8339815191529190600061143383611fdb565b90915550604080519182526060602083018190526011908301527043414d504149474e20435245415445442160781b6080830152429082015260a00160405180910390a25060019695505050505050565b60606006805480602002602001604051908101604052809291908181526020016000905b828210156117165760008481526020908190206040805161016081018252600b86029092018054835260018101546001600160a01b031693830193909352600283018054929392918401916114fc90611fa0565b80601f016020809104026020016040519081016040528092919081815260200182805461152890611fa0565b80156115755780601f1061154a57610100808354040283529160200191611575565b820191906000526020600020905b81548152906001019060200180831161155857829003601f168201915b5050505050815260200160038201805461158e90611fa0565b80601f01602080910402602001604051908101604052809291908181526020018280546115ba90611fa0565b80156116075780601f106115dc57610100808354040283529160200191611607565b820191906000526020600020905b8154815290600101906020018083116115ea57829003601f168201915b5050505050815260200160048201805461162090611fa0565b80601f016020809104026020016040519081016040528092919081815260200182805461164c90611fa0565b80156116995780601f1061166e57610100808354040283529160200191611699565b820191906000526020600020905b81548152906001019060200180831161167c57829003601f168201915b505050918352505060058201546020820152600682015460408201526007820154606082015260088201546080820152600982015460a0820152600a82015460c09091019060ff1660048111156116f2576116f2611d49565b600481111561170357611703611d49565b81525050815260200190600101906114a8565b50505050905090565b60006006828154811061173457611734611f5c565b90600052602060002090600b020160060154905060046006838154811061175d5761175d611f5c565b60009182526020909120600a600b9092020101805460ff1916600183600481111561178a5761178a611d49565b02179055506117c8600683815481106117a5576117a5611f5c565b600091825260209091206001600b9092020101546001600160a01b0316826119c6565b600682815481106117db576117db611f5c565b90600052602060002090600b020160060154600260008282546117fe9190611ff6565b9091555050604080518381526060602082018190526010908201526f141c9bda9958dd0814185a590813dd5d60821b608082015242818301529051339160008051602061200e833981519152919081900360a00190a25050565b60005b6000828152600860205260409020548110156119c257600082815260086020526040812080548390811061189157611891611f5c565b6000918252602080832060049092029091015485835260089091526040822080546001600160a01b03909216935090849081106118d0576118d0611f5c565b9060005260206000209060040201600101549050600160086000868152602001908152602001600020848154811061190a5761190a611f5c565b906000526020600020906004020160030160006101000a81548160ff0219169083151502179055504260086000868152602001908152602001600020848154811061195757611957611f5c565b90600052602060002090600402016002018190555061197682826119c6565b60016003600101600082825461198c9190611ff6565b9091555050600580548291906000906119a6908490611ff6565b92505081905550505080806119ba90611fdb565b91505061185b565b5050565b6000826001600160a01b03168260405160006040518083038185875af1925050503d8060008114611a13576040519150601f19603f3d011682016040523d82523d6000602084013e611a18565b606091505b5050905080611a2657600080fd5b505050565b828054611a3790611fa0565b90600052602060002090601f016020900481019282611a595760008555611a9f565b82601f10611a7257805160ff1916838001178555611a9f565b82800160010185558215611a9f579182015b82811115611a9f578251825591602001919060010190611a84565b50611aab929150611b22565b5090565b6040518061016001604052806000815260200160006001600160a01b03168152602001606081526020016060815260200160608152602001600081526020016000815260200160008152602001600081526020016000815260200160006004811115611b1d57611b1d611d49565b905290565b5b80821115611aab5760008155600101611b23565b600060208284031215611b4957600080fd5b5035919050565b602080825282518282018190526000919060409081850190868401855b82811015611bb257815180516001600160a01b031685528681015187860152858101518686015260609081015115159085015260809093019290850190600101611b6d565b5091979650505050505050565b634e487b7160e01b600052604160045260246000fd5b600082601f830112611be657600080fd5b813567ffffffffffffffff80821115611c0157611c01611bbf565b604051601f8301601f19908116603f01168101908282118183101715611c2957611c29611bbf565b81604052838152866020858801011115611c4257600080fd5b836020870160208301376000602085830101528094505050505092915050565b600080600080600060a08688031215611c7a57600080fd5b85359450602086013567ffffffffffffffff80821115611c9957600080fd5b611ca589838a01611bd5565b95506040880135915080821115611cbb57600080fd5b611cc789838a01611bd5565b94506060880135915080821115611cdd57600080fd5b50611cea88828901611bd5565b95989497509295608001359392505050565b6000815180845260005b81811015611d2257602081850181015186830182015201611d06565b81811115611d34576000602083870101525b50601f01601f19169290920160200192915050565b634e487b7160e01b600052602160045260246000fd5b60058110611d7d57634e487b7160e01b600052602160045260246000fd5b9052565b6000610160825184526020830151611da460208601826001600160a01b03169052565b506040830151816040860152611dbc82860182611cfc565b91505060608301518482036060860152611dd68282611cfc565b91505060808301518482036080860152611df08282611cfc565b91505060a083015160a085015260c083015160c085015260e083015160e085015261010080840151818601525061012080840151818601525061014080840151611e3c82870182611d5f565b5090949350505050565b602081526000611e596020830184611d81565b9392505050565b600080600080600060a08688031215611e7857600080fd5b853567ffffffffffffffff80821115611e9057600080fd5b611e9c89838a01611bd5565b96506020880135915080821115611eb257600080fd5b611ebe89838a01611bd5565b95506040880135915080821115611ed457600080fd5b50611ee188828901611bd5565b9598949750949560608101359550608001359392505050565b6000602080830181845280855180835260408601915060408160051b870101925083870160005b82811015611f4f57603f19888603018452611f3d858351611d81565b94509285019290850190600101611f21565b5092979650505050505050565b634e487b7160e01b600052603260045260246000fd5b634e487b7160e01b600052601160045260246000fd5b60008219821115611f9b57611f9b611f72565b500190565b600181811c90821680611fb457607f821691505b60208210811415611fd557634e487b7160e01b600052602260045260246000fd5b50919050565b6000600019821415611fef57611fef611f72565b5060010190565b60008282101561200857612008611f72565b50039056feaee8e5d3bbb2f71a951b5632cee20f7ac487b9f8ab4f66a236f7694b13af7c6aa26469706673582212201d5c4021f38ac728620f49b16641eeb96230814a7ed9a788174bcaadfb8c681f64736f6c634300080b0033",
  "linkReferences": {},
  "deployedLinkReferences": {}
}